:060000000A128A11FA2F1A
:100E74007108F3007008F200712F3F3083120313DE
:100E840086000800063083120313860008005B30D6
:100E940083120313860008004F3083120313860065
:100EA4000800663083120313860008006D30831235
:100EB4000313860008007D308312031386000800A4
:100EC400073083120313860008007F308312031354
:100ED400860008006F30831203138600080073082D
:100EE400003A0319762F962F7208003A03193F2F00
:100EF400013A0319442F033A0319492F013A0319FC
:100F04004E2F073A0319532F013A0319582F033A66
:100F140003195D2F013A0319622F0F3A0319672F42
:100F2400013A03196C2F962F0800831603138601C8
:100F3400831203138601013083160313870083127F
:100F440003138701F701F80183120313871CAE2FE3
:100F54000130F9000030FA00071DB42F0230F90007
:100F64000030FA007808F1007708F0000A128A11BC
:100F74003A270A128A110330F6008A30F5005530F8
:100F8400F400F40BC32FF50BC32FF60BC32FCA2F9A
:100F940079037A04031DD42F0130F7070318F80AE4
:100FA4000030DE2F023079067A04031DDF2FFF3074
:100FB400F7070318F80AFF30F8070A3077067804B1
:100FC400031DEA2F79037A04031DEA2FF701F801C0
:100FD400770A031DA62F780A031DA62F023079066F
:100FE4007A04031DA62F0930F7000030F800A62F5D
:0C0FF400F901FA0183010A128A11972FFB
:04400E00FCE0FFFFD4
:00000001FF
