:060000000A128A11F42F20
:100E68007108F3007008F2006B2F3F3083120313F0
:100E780086000800063083120313860008005B30E2
:100E880083120313860008004F3083120313860071
:100E98000800663083120313860008006D30831241
:100EA8000313860008007D308312031386000800B0
:100EB800073083120313860008007F308312031360
:100EC800860008006F308312031386000800730839
:100ED800003A0319702F902F7208003A0319392F1E
:100EE800013A03193E2F033A0319432F013A031914
:100EF800482F073A03194D2F013A0319522F033A85
:100F08000319572F013A03195C2F0F3A0319612F60
:100F1800013A0319662F902F0800831603138601E0
:100F2800831203138601013083160313870083128B
:100F380003138701F701F80183120313871CA82FF5
:100F48000130FB000030FC00071DAE2F0230FB0013
:100F58000030FC007808F1007708F0000A128A11C6
:100F680034270A128A110630F6001330F500AD3026
:100F7800F400F40BBD2FF50BBD2FF60BBD2FC42FBE
:100F88007B037C04031DCE2F0130F7070318F80AF2
:100F98000030D82F02307B067C04031DD92FFF3088
:100FA800F7070318F80AFF30F8070A3077067804BD
:100FB800031DE42F7B037C04031DE42FF701F801D4
:100FC800770A031DA02F780A031DA02F02307B0685
:100FD8007C04031DA02F0930F7000030F800A02F73
:100FE800F901FA01FB01FC0183120313A001A1011D
:080FF80083010A128A11912FF6
:04400E00FCE0FFFFD4
:00000001FF
