:100000000A128A11F82F00308A000408840A820735
:0600100000345034C3343B
:1001C600FD01F91FED28F809F909F80A0319F90ADA
:1001D600FD01FD0A7808F0007908F100F2018E3081
:1001E600FB007B08F3007D08FC007C08F4000A1283
:1001F6008A1104217008F8007108F9007208FA00E3
:100206000800730803190C29720871047004031D91
:100216001F290030F0000030F1000030F200080025
:100226000130F5007508F30701300310F20CF10CEC
:10023600F00CFF3E031D1829FE30720503193A29FA
:1002460013290130F5007508F3070130F007003077
:1002560003180130F107003003180130F2070130AE
:100266000310F20CF10CF00CFF3E031D3329FF3096
:1002760072050319492924290130F30201300310BC
:10028600F00DF10DF20DFF3E031D4229F11B4F2922
:100296000230730203183F2973185729FF30F005FF
:1002A6007F30F105FF30F2050310F30C7308F500FB
:1002B600F601F70110300310F50DF60DF70DFF3EB0
:1002C600031D5E297508F0047608F1047708F20428
:1002D600740803190800F217080083120313300884
:1002E600B4003108B5003208B6000310350D360DDE
:1002F600B7003708BD003D08031D8A290030B3004A
:100306000030B2000030B1000030B0000800300804
:10031600B4003108B5003208B60017300310B60C29
:10032600B50CB40CFF3E031D91293408B7003708FD
:10033600B800B117FF30B005FF30B1050030B20587
:100346003008B9003108BA003208BB00BC018E3053
:10035600BD02BD1FCC293D08803A8F3E0318BC293B
:100366000030B3000030B2000030B1000030B00001
:10037600080001300310BC0CBB0CBA0CB90CFF3ED4
:10038600031DBD290130B4003408BD070319E72950
:10039600BC2918303D02031CE4290030B3000030AC
:1003A600B2000030B1000030B00008000130B400E7
:1003B6000310B90DBA0DBB0DBC0DB40BDB29013012
:1003C600BD023D08031DD92938080319F529B909C5
:1003D600BA09BB09BC09B90A0319BA0A0319BB0A47
:1003E6000319BC0A3C08B3003B08B2003A08B10046
:1003F6003908B0000800831203132008A60021085C
:10040600A7002208A8000310270D280DA900290817
:10041600AA002A08031D162A0030A0000030A100F9
:100426000030A20008002308A6002408A70025081B
:10043600A8000310270D280DA9002908AF002F08D2
:10044600031D2C2A0030A0000030A1000030A200BD
:1004560008002F087B3EA6002608AA072008A6004B
:100466002108A7002208A80010300310A80CA70C2A
:10047600A60CFF3E031D382A2608A9002908AF004E
:100486002308A6002408A7002508A800103003109A
:10049600A80CA70CA60CFF3E031D4A2A2608A90095
:1004A6002908AF068030A6002608AF05A117A417B5
:1004B600FF30A305FF30A4050030A5050030AB00D2
:1004C6000030AC000030AD000730A6002608AE00B4
:1004D600201C7B2A2308AB07240803110318240ACF
:1004E600031DAC07250803110318250A031DAD07D4
:1004F60001300310A20CA10CA00CFF3E031D7C2AA8
:1005060001300310A30DA40DA50DFF3E031D842A83
:100516000130AE02031D6B2A0930A6002608AE0084
:10052600201CA32A2308AB07240803110318240A56
:10053600031DAC07250803110318250A031DAD0783
:1005460001300310A20CA10CA00CFF3E031DA42A2F
:1005560001300310AD0CAC0CAB0CFF3E031DAC2AF6
:100566000130AE02031D932A2B08F0002C08F1007F
:100576002D08F2002A08A6002608F3002F08A70077
:100586002708F4000A128A11042170088312031343
:10059600A0007108A1007208A200080083160313C8
:1005A6008601831203138601831603138701013024
:1005B600831203138700831203138601071C6B2D16
:1005C6003F308600013084000A128A1103200A1285
:1005D6008A11F8000A128A1103200A128A11F900F8
:1005E6000A128A11E3200A128A1178088312031369
:1005F600A3007908A4007A08A5000030A0007A308C
:10060600A1004430A2000A128A11FE210A128A11A0
:10061600831203132008B0002108B1002208B2009B
:100626000A128A1170210A128A11831203133008E2
:10063600BE003108BF003208C0003308C1000630D2
:10064600831203138600013084000A128A110320E4
:100656000A128A11F8000A128A1103200A128A1154
:10066600F9000A128A11E3200A128A117808831205
:100676000313A3007908A4007A08A5000030A0009F
:100686007A30A1004430A2000A128A11FE210A1211
:100696008A11831203132008B0002108B100220832
:1006A600B2000A128A1170210A128A1183120313E8
:1006B6003008BE003108BF003208C0003308C10050
:1006C6005B30831203138600013084000A128A11FC
:1006D60003200A128A11F8000A128A1103200A124C
:1006E6008A11F9000A128A11E3200A128A1178087F
:1006F60083120313A3007908A4007A08A50000302A
:10070600A0007A30A1004430A2000A128A11FE210C
:100716000A128A11831203132008B0002108B100BF
:100726002208B2000A128A1170210A128A11831253
:1007360003133008BE003108BF003208C00033087A
:10074600C1004F30831203138600013084000A1261
:100756008A1103200A128A11F8000A128A1103204C
:100766000A128A11F9000A128A11E3200A128A1162
:10077600780883120313A3007908A4007A08A50059
:100786000030A0007A30A1004430A2000A128A117B
:10079600FE210A128A11831203132008B0002108D1
:1007A600B1002208B2000A128A1170210A128A11B7
:1007B600831203133008BE003108BF003208C000A0
:1007C6003308C100663083120313860001308400AB
:1007D6000A128A1103200A128A11F8000A128A11D3
:1007E60003200A128A11F9000A128A11E3200A125A
:1007F6008A11780883120313A3007908A4007A08E3
:10080600A5000030A0007A30A1004430A2000A12F0
:100816008A11FE210A128A11831203132008B000DE
:100826002108B1002208B2000A128A1170210A12A8
:100836008A11831203133008BE003108BF00320844
:10084600C0003308C1006D308312031386000130E7
:1008560084000A128A1103200A128A11F8000A1269
:100866008A1103200A128A11F9000A128A11E3205A
:100876000A128A11780883120313A3007908A400C8
:100886007A08A5000030A0007A30A1004430A2000A
:100896000A128A11FE210A128A11831203132008F2
:1008A600B0002108B1002208B2000A128A11702194
:1008B6000A128A11831203133008BE003108BF00E2
:1008C6003208C0003308C1007D308312031386004E
:1008D600013084000A128A1103200A128A11F800D4
:1008E6000A128A1103200A128A11F9000A128A11C1
:1008F600E3200A128A11780883120313A3007908E9
:10090600A4007A08A5000030A0007A30A100443087
:10091600A2000A128A11FE210A128A1183120313F7
:100926002008B0002108B1002208B2000A128A117C
:1009360070210A128A11831203133008BE0031088F
:10094600BF003208C0003308C1000730831203130A
:100956008600013084000A128A1103200A128A11C5
:10096600F8000A128A1103200A128A11F9000A12E3
:100976008A11E3200A128A11780883120313A3004E
:100986007908A4007A08A5000030A0007A30A100FA
:100996004430A2000A128A11FE210A128A11831219
:1009A60003132008B0002108B1002208B2000A1281
:1009B6008A1170210A128A11831203133008BE00AD
:1009C6003108BF003208C0003308C1007F308312EF
:1009D60003138600013084000A128A1103200A12CA
:1009E6008A11F8000A128A1103200A128A11F900E4
:1009F6000A128A11E3200A128A1178088312031355
:100A0600A3007908A4007A08A5000030A0007A3077
:100A1600A1004430A2000A128A11FE210A128A118C
:100A2600831203132008B0002108B1002208B20087
:100A36000A128A1170210A128A11831203133008CE
:100A4600BE003108BF003208C0003308C1006F3055
:100A5600831203138600013084000A128A110320D0
:100A66000A128A11F8000A128A1103200A128A1140
:100A7600F9000A128A11E3200A128A1178088312F1
:100A86000313A3007908A4007A08A5000030A0008B
:100A96007A30A1004430A2000A128A11FE210A12FD
:100AA6008A11831203132008B0002108B10022081E
:100AB600B2000A128A1170210A128A1183120313D4
:100AC6003008BE003108BF003208C0003308C1003C
:100AD60083120313871CDE2A6F30860001308400E0
:100AE6000A128A1103200A128A11F8000A128A11C0
:100AF60003200A128A11F9000A128A11E3200A1247
:100B06008A11780883120313A3007908A4007A08CF
:100B1600A5000030A0007A30A1004430A2000A12DD
:100B26008A11FE210A128A11831203132008B000CB
:100B36002108B1002208B2000A128A1170210A1295
:100B46008A11831203133008BE003108BF00320831
:100B5600C0003308C1007F308312031386000130C2
:100B660084000A128A1103200A128A11F8000A1256
:100B76008A1103200A128A11F9000A128A11E32047
:100B86000A128A11780883120313A3007908A400B5
:100B96007A08A5000030A0007A30A1004430A200F7
:100BA6000A128A11FE210A128A11831203132008DF
:100BB600B0002108B1002208B2000A128A11702181
:100BC6000A128A11831203133008BE003108BF00CF
:100BD6003208C0003308C1000730831203138600B1
:100BE600013084000A128A1103200A128A11F800C1
:100BF6000A128A1103200A128A11F9000A128A11AE
:100C0600E3200A128A11780883120313A3007908D5
:100C1600A4007A08A5000030A0007A30A100443074
:100C2600A2000A128A11FE210A128A1183120313E4
:100C36002008B0002108B1002208B2000A128A1169
:100C460070210A128A11831203133008BE0031087C
:100C5600BF003208C0003308C1007D308312031381
:100C66008600013084000A128A1103200A128A11B2
:100C7600F8000A128A1103200A128A11F9000A12D0
:100C86008A11E3200A128A11780883120313A3003B
:100C96007908A4007A08A5000030A0007A30A100E7
:100CA6004430A2000A128A11FE210A128A11831206
:100CB60003132008B0002108B1002208B2000A126E
:100CC6008A1170210A128A11831203133008BE009A
:100CD6003108BF003208C0003308C1006D308312EE
:100CE60003138600013084000A128A1103200A12B7
:100CF6008A11F8000A128A1103200A128A11F900D1
:100D06000A128A11E3200A128A1178088312031341
:100D1600A3007908A4007A08A5000030A0007A3064
:100D2600A1004430A2000A128A11FE210A128A1179
:100D3600831203132008B0002108B1002208B20074
:100D46000A128A1170210A128A11831203133008BB
:100D5600BE003108BF003208C0003308C10066304B
:100D6600831203138600013084000A128A110320BD
:100D76000A128A11F8000A128A1103200A128A112D
:100D8600F9000A128A11E3200A128A1178088312DE
:100D96000313A3007908A4007A08A5000030A00078
:100DA6007A30A1004430A2000A128A11FE210A12EA
:100DB6008A11831203132008B0002108B10022080B
:100DC600B2000A128A1170210A128A1183120313C1
:100DD6003008BE003108BF003208C0003308C10029
:100DE6004F30831203138600013084000A128A11E1
:100DF60003200A128A11F8000A128A1103200A1225
:100E06008A11F9000A128A11E3200A128A11780857
:100E160083120313A3007908A4007A08A500003002
:100E2600A0007A30A1004430A2000A128A11FE21E5
:100E36000A128A11831203132008B0002108B10098
:100E46002208B2000A128A1170210A128A1183122C
:100E560003133008BE003108BF003208C000330853
:100E6600C1005B30831203138600013084000A122E
:100E76008A1103200A128A11F8000A128A11032025
:100E86000A128A11F9000A128A11E3200A128A113B
:100E9600780883120313A3007908A4007A08A50032
:100EA6000030A0007A30A1004430A2000A128A1154
:100EB600FE210A128A11831203132008B0002108AA
:100EC600B1002208B2000A128A1170210A128A1190
:100ED600831203133008BE003108BF003208C00079
:100EE6003308C100063083120313860001308400E4
:100EF6000A128A1103200A128A11F8000A128A11AC
:100F060003200A128A11F9000A128A11E3200A1232
:100F16008A11780883120313A3007908A4007A08BB
:100F2600A5000030A0007A30A1004430A2000A12C9
:100F36008A11FE210A128A11831203132008B000B7
:100F46002108B1002208B2000A128A1170210A1281
:100F56008A11831203133008BE003108BF0032081D
:100F6600C0003308C1003F308312031386000130EE
:100F760084000A128A1103200A128A11F8000A1242
:100F86008A1103200A128A11F9000A128A11E32033
:100F96000A128A11780883120313A3007908A400A1
:100FA6007A08A5000030A0007A30A1004430A200E3
:100FB6000A128A11FE210A128A11831203132008CB
:100FC600B0002108B1002208B2000A128A1170216D
:100FD6000A128A11831203133008BE003108BF00BB
:100FE6003208C0003308C100DE2A83120313C2018F
:0A0FF600C30183010A128A11D12AF7
:04400E00FCE0FFFFD4
:00000001FF
